:020000040800F2
:100000001007002089010008270E00087D0D000858
:10001000250E00088F0200083D0F000800000000B8
:100020000000000000000000000000002B0E00088F
:100030009102000800000000290E00082D0E0008A3
:10004000A3010008A3010008A3010008A301000800
:10005000A3010008A3010008A3010008A3010008F0
:10006000A3010008A3010008A3010008A3010008E0
:10007000A3010008A3010008A3010008A3010008D0
:10008000A3010008A3010008A3010008A3010008C0
:10009000A3010008A3010008A3010008A3010008B0
:1000A000A3010008A3010008A3010008A3010008A0
:1000B000A3010008A3010008A3010008A301000890
:1000C000A3010008A3010008A3010008A301000880
:1000D000A3010008A3010008A3010008A301000870
:1000E000A3010008A3010008A301000800F002F822
:1000F00000F03AF80AA090E8000C82448344AAF188
:100100000107DA4501D100F02FF8AFF2090EBAE885
:100110000F0013F0010F18BFFB1A43F0010318473B
:10012000080F0000280F0000103A24BF78C878C1DB
:10013000FAD8520724BF30C830C144BF04680C60ED
:10014000704700000023002400250026103A28BF35
:1001500078C1FBD8520728BF30C148BF0B60704739
:100160001FB51FBD10B510BD00F058F81146FFF7C0
:10017000F7FF00F0F5FE00F076F803B4FFF7F2FFAA
:1001800003BC00F07DF8000009488047094800479B
:10019000FEE7FEE7FEE7FEE7FEE7FEE7FEE7FEE737
:1001A000FEE7FEE704480549054A064B7047000094
:1001B000810E0008ED00000810010020100700204B
:1001C00010030020100300204FF0000200B513467A
:1001D00094469646203922BFA0E80C50A0E80C5067
:1001E000B1F12001BFF4F7AF090728BFA0E80C5018
:1001F00048BF0CC05DF804EB890028BF40F8042B11
:1002000008BF704748BF20F8022B11F0804F18BF7D
:1002100000F8012B7047704770477047754600F033
:100220002BF8AE4605006946534620F00700854688
:1002300018B020B5FFF7B6FFBDE820404FF000062C
:100240004FF000074FF000084FF0000B21F00701BE
:10025000AC46ACE8C009ACE8C009ACE8C009ACE801
:10026000C0098D46704710B50446AFF300802046A4
:10027000BDE81040FFF781BF00487047AC00002088
:1002800001491820ABBEFEE7260002007047FEE7DA
:100290007047000070B5044600F004F90546601C84
:1002A00002D004480078044400F0FCF8401BA0424F
:1002B000FAD370BD000000202DE9F84FDFF8B891A7
:1002C0000024A9F1040B23460F2709F1040AABF11E
:1002D000040EC9E00125A5402A40AA427DD1674EFF
:1002E000D1F804C0ACEB0608B44532D014DCBCF144
:1002F000030F3AD009DCBCF1000F2AD0BCF1010F8A
:100300001CD0BCF1020F31D11DE0BCF1110F17D090
:10031000BCF1120F2AD119E0B8F5881F19D006DCFC
:10032000B8F5803F15D0B8F5801F1FD111E0B8F5A2
:10033000001F0ED0B8F5041F18D10AE0CB6815E0F5
:10034000CB681B1D12E0CB6808330FE0CB680C3381
:100350000CE08B682BB1012B4FF0080303D04561F3
:1003600004E0042302E0056100E00023FF2A01D835
:10037000064601E000F104064FEA840501D9A5F123
:100380002005D6F8008007FA05FC28EA0C0803FAD5
:1003900005F548EA0508C6F800804D68ED0062D50D
:1003A000374DAE6946F00106AE61AD6924F0030633
:1003B00005F001050095334D06EB050CDCF80850FF
:1003C000A607360F07FA06F825EA0805DFF8B88011
:1003D000404503D14FF0000817E044E0DFF8AC805F
:1003E000404502D14FF001080FE0DFF8A4804045FE
:1003F00002D14FF0020808E0DFF89880404502D1B2
:100400004FF0030801E04FF0040808FA06F848EA44
:100410000508CCF808804D68D9F80060ED024D461B
:1004200001D5164300E096432E604D68DAF800606F
:10043000AD02554601D5164300E096432E604D6847
:10044000DBF80060AD035D4601D5164300E096433E
:100450002E604D68DEF80060ED03754601D5164349
:1004600000E096432E60641C0D682A46E5407FF448
:1004700031AFBDE8F88F0000080401400000111002
:10048000001002400000014000080140000C014043
:1004900000100140001401400AB1016170470904D5
:1004A000FBE7000001488068704700000000002062
:1004B00070B5040025D094F83D00002520B984F8DB
:1004C0003C50204600F0B8F8242084F83D00206815
:1004D000016821F0010101602068016841F40041D8
:1004E00001602068016821F40041016000F0F2F928
:1004F0004D4A6168914201D84C4900E04C4988421C
:1005000001D2012070BD4B492368B0FBF1F15E6858
:1005100026F03F060E435E606368934206D94FF4AF
:10052000967359434FF47A73B1FBF3F12368491C76
:100530001E6A26F03F06314319626168914210D865
:100540004900401EB0FBF1F2521CC2F30B02042A18
:1005500001D2042022E0B0FBF1F0401CC0F30B00FC
:100560001CE0A268F2B301EBC10303EB0116431ECA
:10057000B3FBF6F35B1C43F480431B0549D092B3F5
:1005800001EBC10202EB0111401EB0FBF1F0401C77
:10059000C0F30B0040F4804040F400402168CA6979
:1005A0004CF6FF739A431043C861D4E90710014326
:1005B0002068026822F0C00211430160D4E90301FF
:1005C00001432068826848F2FF339A4311438160F7
:1005D000D4E9050108432168CA6822F0FF021043EC
:1005E000C86001E00EE016E02068016841F00101FA
:1005F00001602564202084F83D00256384F83E5086
:10060000002070BD01EB4106431EB3FBF6F35B1CFB
:10061000B3E70120C2E701EB4101401EB0FBF1F05E
:10062000401CC0F30B00B7E7A086010080841E00C9
:1006300000093D0040420F0010B586B00021009136
:1006400001910291039100680F4988421AD10F4C21
:10065000A06940F00800A061A069694600F00800A8
:100660000490C020009012200190032003900848BD
:10067000FFF722FEE06940F40010E061E06900F459
:100680000010049006B010BD00540040001002405D
:10069000000C014002488168027811448160704773
:1006A00000000020074810B5016841F0100101600A
:1006B000032000F067F80F2000F006F800F024F89F
:1006C000002010BD0020024070B50D4D04464FF4CF
:1006D0007A712878B1FBF0F00A490968B1FBF0F0B3
:1006E00000F0CEFA48B9102C07D200222146501E45
:1006F00000F028F800206C6070BD012070BD000083
:10070000000000200C0000200C4808B5816941F071
:1007100001018161816901F001010091C16941F02C
:100720008051C161C06900F0805000900448416868
:1007300021F0E06141F00071416008BD001002400D
:1007400000000140F0B40E4B1B680C46C3F30223BB
:10075000C3F10705042D00D90425191D072901D26D
:10076000002300E0DB1E012606FA05F1491E2140A8
:1007700099409E40761E16403143F0BC00F0DFBB2E
:100780000CED00E0064900F0070208684FF6FF0391
:10079000184040EA0220034A1043086070470000F6
:1007A0000CED00E00000FA052DE9F0470F460500CA
:1007B00061D0434E306800F00700B84209D230687B
:1007C00020F0070038433060306800F00700B8427E
:1007D00051D128683B4C810712D5400703D560688A
:1007E00040F4E06060602878000703D5606840F45A
:1007F000605060606068A96820F0F00008436060A5
:100800002878C00728D06868012810D021680228FD
:1008100010D0890700292EDA616821F00301014315
:100820006160FFF73FFE804641F288390DE02168A4
:100830008903EFE78901EDE7FFF734FEA0EB08013C
:10084000494502D90320BDE8F0876068696800F077
:100850000C00B0EB810FEFD1306800F00700B84218
:100860000BD9306820F0070038433060306800F062
:100870000700B84201D00120E5E72878400705D5F8
:100880006068E96820F4E060084360602878000749
:1008900006D56068296920F4605040EAC1006060B4
:1008A00000F038F86168084AC1F30311515CC84090
:1008B0000649086006480068FFF706FF0020C2E707
:1008C00000200240001002400E1000080C00002022
:1008D000040000200448054900684968044AC1F33F
:1008E0000221515CC84070470C00002000100240FB
:1008F0001E1000080448054900684968044AC1F30D
:10090000C221515CC84070470C000020001002401A
:100910001E1000080E4A51680E4801F00C03042B0B
:1009200011D0082B0FD10C48C1F38343C903C05C1D
:100930000AD55168084AC1F34041921E515C054AEC
:100940005043B0FBF1F07047044948437047000042
:100950000010024000127A00FE0F000800093D005E
:100960002DE9F84F040070D02078C04DC00749D061
:100970006868C0F38100012807D06868C0F381006F
:10098000022809D16868C00306D52868800339D5D4
:1009900060680028E7D035E06068B0F5803F0BD094
:1009A00010B1B0F5A02F11D0286820F48030286055
:1009B000286820F4802002E0286840F48030286015
:1009C000606890B1FFF76EFD06460AE0286840F4C3
:1009D00080202860F0E700BFFFF764FD801B6428DB
:1009E00073D828688003F7D50CE0FFF75BFD064657
:1009F00005E000BFFFF756FD801B6428F0D828688B
:100A00008003F7D420789A4E80074FF001094FF009
:100A1000000839D5686810F00C0F07D06868C0F37B
:100A20008100022809D16868C00306D428688007BD
:100A300014D52069012808D110E02069B0B1C6F8AA
:100A40000090FFF72FFD074605E00AE1FFF72AFDBA
:100A5000C01B0228C4D828688007F7D528686169B8
:100A600020F0F80040EAC10028600DE0C6F80080E0
:100A7000FFF718FD074604E0FFF714FDC01B02282E
:100A800023D828688007F7D4207800072CD5794828
:100A9000A169D9B1C0F80090FFF704FD074604E052
:100AA000FFF700FDC01B02280FD8686A8007F7D542
:100AB00071484FF4FA510068B0FBF1F0009000BFAC
:100AC0000098411E0091FAD20EE080E0C0F800804C
:100AD000FFF7E8FC074604E0FFF7E4FCC01B022830
:100AE00075D8686A8007F7D42078400760D5E86930
:100AF0000027C00008D4E86940F08050E861E86948
:100B0000012700F0805000905C480168C90513D4AB
:100B10000168834641F480710160FFF7C3FC82469F
:100B200006E000BFFFF7BEFCA0EB0A0064284ED829
:100B3000DBF80000C005F5D5E06801280AD008B14F
:100B4000052813D0286A20F001002862286A20F0C6
:100B5000040002E0286A40F001002862E06841F2E7
:100B6000883B98B1FFF79EFC82460BE0286A40F074
:100B700004002862EEE700BFFFF794FCA0EB0A0137
:100B800059455AD8286A8007F6D50CE0FFF78AFC49
:100B9000824605E0FFF786FCA0EB0A0159454CD8D8
:100BA000286A8007F6D41FB1E86920F08050E86118
:100BB000E06988B36968C1F38101022944D0022841
:100BC000C6F8608004D0FFF76DFC044638E034E0DE
:100BD000FFF768FC074604E0FFF764FCC01B02282F
:100BE0002BD828688001F7D4206AB0F5803F05D162
:100BF0006868A16820F4003008436860D4E90801FF
:100C00000843696821F4741108436860C6F860906D
:100C1000FFF748FC044606E025E000BFFFF742FC72
:100C2000001B022809D828688001F7D51BE000BF07
:100C3000FFF738FC001B022802D90320BDE8F88F1B
:100C400028688001F4D40EE00128F7D06868226A91
:100C500000F48031914204D1616A00F4701088423E
:100C600001D00120EAE70020E8E700000010024080
:100C700000004242800442420C000020007000400C
:100C800010B5401EB0F1807F01D3012010BD4FF0A0
:100C9000E02460610F21601700F051F90020A0618D
:100CA00007202061002010BD70B5040004D094F826
:100CB0004100002510B106E0012070BD84F84050CD
:100CC000204600F023F8242084F841002068C16801
:100CD00021F40051C160204600F0D4F82068016979
:100CE00021F4904101612068416921F02A014161AC
:100CF0002068C16841F40051C1606564202084F817
:100D0000410084F842006563002070BD30B585B0B5
:100D100000240094019402940394006814498842CA
:100D200024D11448816941F480418161816901F4D1
:100D300080410491816941F00401816180690E4D17
:100D400000F0040004904FF4007000900220019025
:100D50000320039069462846FFF7AEFA2815CDE92F
:100D60000004694628460294FFF7A6FA05B030BD94
:100D7000003801400010024000080140FEE700007A
:100D80002DE9F04186B00024234800940194029498
:100D90000394816941F010018161816901F01001C2
:100DA0000491816941F004018161816901F00401CC
:100DB0000491816941F0080181618069174F00F059
:100DC00008004FF400550490002229463846FFF7EA
:100DD00063FBDFF84C80002202214046FFF75CFBFA
:100DE0000095022601250396CDE90154694638464F
:100DF000FFF762FACDE90054694640460294FFF7D6
:100E00005BFACDE90065CDE9024669464046FFF749
:100E100053FA06B0BDE8F081001002400010014016
:100E200000080140FEE7FEE770477047FFF732BC5D
:100E300010B590B028216846FFF7C6F914210AA81A
:100E4000FFF7C2F902200090012004901020002436
:100E5000059007946846FFF783FD08B172B6FEE778
:100E60000F20CDE90A040C940D9400210AA80E94D9
:100E7000FFF79AFC002801D072B6FEE710B010BD53
:100E80007047000070B5044600680169E26821F40B
:100E90004051114301612169A06808436169084319
:100EA0002168CA6841F20C639A430243CA60206811
:100EB0004169A26921F44071114341611E492068D2
:100EC000884202D1FFF716FD01E0FFF703FD00EBBA
:100ED000C00101EB0012606864218000B2FBF0F3F6
:100EE000B3FBF1F36FF018067343B2FBF0F5B2FBFE
:100EF000F0F605EB8305322303EB0515B5FBF1F5A1
:100F0000B6FBF1F605F0F00505EB0615B2FBF0F6C1
:100F1000B2FBF0F0B0FBF1F06FF01802504306EBBB
:100F2000800003EB0010B0FBF1F0216800F00F002F
:100F30002844886070BD000000380140FEE70907C2
:100F4000090E002804DB00F1E02080F8001470474F
:100F500000F00F0000F1E02080F8141D7047000041
:100F6000FFF7A0FBFFF764FFFFF70AFF1F481E49CA
:100F7000002401601E49C0E901144FF48041C0E91A
:100F8000034144618461C4610462FFF791FA08B1CE
:100F900072B6FEE715481749543001604FF4E1314D
:100FA000C0E901140C21C460C0E904418461C4613A
:100FB000FFF77AFE08B172B6FEE70F4C4FF4005609
:100FC0004FF4FA75002231462046FFF765FA2846AD
:100FD000FFF760F9012231462046FFF75DFA284607
:100FE000FFF758F9EEE70000005400401000002021
:100FF000A0860100003801400010014001020203F8
:101000000405060708090A0B0C0D0E0F101000004E
:1010100000000000000001020304060708090000A8
:101020000000010203040000481000080000002036
:1010300010000000280100085810000810000020CF
:10104000000700004401000801000000100000003B
:081050000000000000127A000C
:04000005080000ED02
:00000001FF
